:1000000040C200005BC2000059C2000057C200009D
:1000100055C2000053C2000051C200004FC2000090
:100020004DC200004BC200000C9429300C941131D9
:100030000C94DE2F43C2000041C200003FC200000A
:100040003DC200003BC2000039C2000037C20000C0
:1000500035C200000C94053031C200002FC20000F0
:100060002DC200002BC2000029C2000027C20000E0
:1000700025C2000023C2000021C200001FC20000F0
:100080001DC200001BC2000019C2000017C2000000
:1000900015C2000013C2000011C200000FC2000010
:1000A0000DC200000BC2000009C200000660FF097B
:1000B00061A1010962150026FF00952075088102E3
:1000C0000963150026FF00952075089102C00501FF
:1000D0000906A101050719E029E715002501950882
:1000E000750181029501750881010507190029FF35
:1000F000150026FF009506750881000508190129DD
:10010000051500250195057501910295017503916D
:1001100001C009024200020100A0FA090400000126
:10012000030101000921110100012244000705819A
:100130000308000109040100020300000009211165
:1001400001000122220007058203200001070503A8
:10015000032000011201000200000008EDFE6160B2
:100160000100010203011C037600690061006C00BC
:100170003A0066003600340063003200620033004B
:1001800063000000140353006C0069006D007000F0
:10019000610064004D003800000014034800610055
:1001A0006E00640077006900720065006400000062
:1001B000040309040000000000000000000000002B
:1001C000000000000000000000000000000000002F
:1001D00000000000000000007E0F00D4FFFFFFC7FA
:1001E0000000007800000000000000002A2B28001A
:1001F00000000000000000000000000000000029D6
:10020000000000002C1E3420212224342627252E15
:10021000362D3738271E1F2021222324252633334D
:10022000362E37381F0405060708090A0B0C0D0E79
:100230000F101112131415161718191A1B1C1D2F45
:100240003130232D350405060708090A0B0C0D0E65
:100250000F101112131415161718191A1B1C1D2F25
:100260003130354C14000C002C0000000F0033001E
:100270001A0000000E000D00000000001000360003
:1002800037000000040016000700380001000100DC
:10029000CE043010A810000002000200CA04301082
:1002A000A810000003000100CF043010A8100000C7
:1002B00004000200B4043010A8105206050001002A
:1002C000D0043010A810000006000200B604301060
:1002D000A810000007000200CC043010A810000095
:1002E00012000200D2043010A81000001300020017
:1002F000D4043010A810000014000100D6043010FF
:10030000A81000001500000000005B06A90B00000B
:1003100016000100D1044710BE10000017000101B3
:10032000D1044710BE10000018000102D10447108C
:10033000BE10000019000200D8043010A810000000
:100340001A000103D1044710BE1000001B00020078
:10035000DA043010A8100000FD377A585A00000463
:10036000E6D6B4460200210116000000742FE5A372
:10037000E0012D00B55D003D8889C65436C3174F96
:10038000E4E62A999DE91F3E47FF5D99324F3CAF55
:10039000FACC3039FD22D8302DD70A3AE1F40BBD22
:1003A000800818FC17F97E2ED4D0F3EACBA801946C
:1003B0003041C9B9D0D27AFD39A2975B4C8921531B
:1003C000099FA81B05DDE4264B4E58EBC05A50F799
:1003D0004DDDF6802B0BC892EA840A2E901187FE21
:1003E0002651B36DB4F85CFDB2CF63AC2D982D09E6
:1003F000E0B45AC60326323DC9EC1577865F7AEE23
:100400002232B3F45D4AFE60D9A7208E14B1CAD35C
:100410000672AC2AEDA22E3306A1021A921D75FDBA
:1004200087212B148405475386865C00000000005A
:1004300071854BD4C3569BC50001D101AE020000AB
:10044000BF886789B1C467FB020000000004595AE5
:100450004C4C4C00525252004C520000525252002E
:100460004C4C4C52504F52514A4D4B4E2A4C2F300F
:100470000D0E0B0F1A0508050905071811130408BE
:10048000120C11241FBECFEFDAE0DEBFCDBF11E0AA
:10049000A0E0B1E0E8ECF4E602C005900D92A633CE
:1004A000B107D9F724E0A6E3B1E001C01D92A13E57
:1004B000B207E1F70E94A6290C942E32A1CD9C012F
:1004C00091509F31B0F4832F817034FF0AC0829520
:1004D000807F31FD806232FD806433FF0BC0806815
:1004E000089531FD826032FD846033FF03C088606F
:1004F000089580E00895CF93DF93EB01E0DFFE01E4
:100500000995DF91CF9108950C945A310895982F51
:1005100092959F7061F420E0982F892F869586959B
:1005200011F02E5F982F892F8695820F089524E071
:10053000F4CF282F92959F70963099F060F4925FD7
:100540009F70923030F4203FB1F038F481E0283EC3
:1005500038F080E008959A5FF3CF81E0243FC9F737
:10056000089591E0813F09F090E081E0283E08F095
:1005700080E0892B089581E008958093B204089566
:100580008093B304089521E001C0220F8A95EAF711
:100590008091B304822BF4CF21E001C0220F8A9511
:1005A000EAF7822F80959091B3048923E9CF282F11
:1005B000953090F5843080F534E0939FC00111248C
:1005C000820F911D51E081FD54E080FD550F82FDA9
:1005D000529523E0969587952A95E1F7FC01EE0F59
:1005E000FF1FE80FF91FE55AFD4F20E030E070E0F3
:1005F0004191DF01CB01022E02C0969587950A94A6
:10060000E2F78695880B8427852384278E932F5FB6
:100610003F4F2330310561F70895282F953070F54D
:10062000843060F534E0939FC0011124820F911D46
:10063000682F677023E0969587952A95E1F7FC016E
:10064000EE0FFF1FE80FF91FE55AFD4F40E050E0A5
:1006500080E0219130E0062E02C0369527950A945D
:10066000E2F72170042E01C0220F0A94EAF7822BD0
:100670004F5F5F4F4330510561F7089580E0089563
:100680009091B30421E030E0F90101C0EE0F8A95AA
:10069000EAF7D90101C0AA0F6A95EAF7EA2B01C06F
:1006A000220F4A95EAF7892F8E23E81303C0892F7A
:1006B000822B66CF2095822F8923FBCFE091720297
:1006C00090917102E91302C080E008959F0159E002
:1006D000E59FF0011124ED5EFD4F5181561306C0D8
:1006E0005081581303C05581541305C02F5F3F4FED
:1006F000F901E770E7CF81E008958091120290E060
:1007000020E0022E001C0008281709060CF00895AE
:100710002F5FF7CFCF93DF93DB01FC0124812130E2
:1007200059F514962C911497213031F5E18124E08C
:10073000E29FF0011124EC018881E80FF11DE05BDC
:10074000FB4F94919A32C1F01196EC9184E0E89FAE
:10075000F00111248E91E80FF11DE05BFB4FE49155
:1007600081E09E1301C080E091E0EA3209F090E060
:10077000892BDF91CF91089581E0FBCF2091FC037D
:100780002D79A1F4903578F49032C0F441E08333B0
:10079000910539F0C0F441E08E31910588F4049759
:1007A00028F0842F0895392F365511F040E0F9CF05
:1007B0009C01205F364527303105C0F390E0E6CF3D
:1007C0008C97A1F7EECFC69741E0039750F3EECF99
:1007D0008091720220917102281301C00895019640
:1007E0008770FACF9091000480958923809300044C
:1007F000282F277081F4891771F09091DD0492FF02
:100800000AC0869586958695C7DE109200041092E0
:1008100001041092020408959091FC03982B909388
:10082000FC0308958095982F8091FC038923809381
:10083000FC0308958095982F8091FF03892380936E
:10084000FF0308958091FA03811531F01092FA03A5
:100850001092F8031092F9030895803E9105D1F1AA
:10086000C8F48133910509F481C048F489329105B7
:1008700009F471C08A32910509F47FC00895893363
:100880009105E1F082389105C9F08533910509F4AD
:100890005DC00895843E9105D1F148F4823E9105F2
:1008A00031F1833E910541F181EE90E00895863E5D
:1008B0009105C1F1873E9105F1F108952091DC0485
:1008C000237009F064C02091DD0423FF14C089E285
:1008D00090E008952091DC0420FD45C03091DD04B6
:1008E00030FF09C024FD24C083EE90E008952091DC
:1008F000DC0422FDF7CF08952091DC0422FD44C0E2
:100900003091DD0430FD43C024FFF5CF11C02091AC
:10091000DD0421FFF0CF8091DC0484FD09C087EE67
:1009200090E008952091DC0423FFE5CF24FFF7CF6A
:1009300080E090E008952091DC0423FD2BC03091ED
:10094000DD0431FFE1CF84EE90E008952091DC04D6
:1009500025FFD1CFBCCF2091DC0425FD1EC0209106
:10096000DD0423FFC8CF89E390E008952091DC04E3
:1009700026FFC1CF8AE290E008952091DC0426FF93
:10098000BACF81E390E0089582EE90E0089580EE82
:1009900090E0089586EE90E0089585E390E0089554
:1009A0009091DC0492FF10C041E0282F2471243084
:1009B00009F040E031E0282F2871283009F030E0BC
:1009C000431711F02CE0822793FF10C041E0282F3D
:1009D0002471243109F040E031E0282F28712831BA
:1009E00009F030E0431711F02CE082273091DD044C
:1009F00030FF10C051E0282F2171213009F050E064
:100A000041E0282F2871283009F040E0541711F0F8
:100A100029E0822731FF10C041E0282F21712131C8
:100A200009F040E031E0282F2871283109F030E04A
:100A3000431711F029E0822794FD877E08950F93D4
:100A40001F93CF93DF9309DFEC01D23508F03DC04F
:100A5000D03508F0AEC0C83ED105F0F4C03ED10597
:100A600060F4C53AD10578F4C430D10530F481E0A2
:100A7000219709F080E0C82FD0E0CE01DF91CF911F
:100A80001F910F910895CE018D5C9109D065439718
:100A9000A0F3C0E0D0E0F1CFD03478F4D03208F049
:100AA0009BC0CE0191509F31A0F78D2F79DF082F89
:100AB0008C2F90E0D2DE902B4FC08C2F90E0CDDEBB
:100AC000DF70C82FD92BD06AD8CFC03882E5D807BD
:100AD000B8F5C03682E5D80708F051C0C03482E5C9
:100AE000D807C8F4C03282E5D80708F042C08C2F7E
:100AF0008695869520E2829FC0011124C37021E073
:100B000030E002C0220F331FCA95E2F7E901C82B7B
:100B1000D92BDD68B2CF8C2F86958695877020E221
:100B2000829FC0011124C37021E030E002C0220F77
:100B3000331FCA95E2F7E901C82BD92BDC689DCF9A
:100B4000C03C82E5D80750F48C2F8F71C03AD24553
:100B500058F5982F84EF906AEC018FCFCE01805C1E
:100B60009245809708F095CFDC2FDF71C0EFD06AF7
:100B700084CF8C2F8F71D82FC1EFD06A7ECF8C2F6E
:100B800086958695877020E2829FC0011124C370EC
:100B900021E030E002C0220F331FCA95E2F7E901DD
:100BA000C82BD92BDA6869CFFBDEC0E0D82FD06222
:100BB00064CF8C2F8F71F4DE93E0CC0FDD1F9A95FC
:100BC000E1F7DF70282F84FF04C090E1899F900136
:100BD0001124C22FD06951CF8D2F8F71E1DE082FE4
:100BE0008C2F90E03ADE902BEC01E1CF80E008956D
:100BF00081152CE7920741F42091120130911301E5
:100C0000232B11F480E090E00895E6E6F3E080E025
:100C100090E06DEB78E240EE58E223E539E266833E
:100C20007783408751872287338786879787019606
:100C300070968830910599F70895903218F49111C3
:100C400006C008959C013052303350F00895392F7A
:100C500094FF02C03295307FFB012081232B20833B
:100C600090E00895462B22FF0FC0982F92959F7019
:100C70008F70892B962F92959F706F70692B942F90
:100C800092959F704F70492B982F9623961308C00A
:100C900040955FEF90E04823592381E0452B09F010
:100CA00080E008958091B4049091B5048093100180
:100CB000909311010895CF93DF938FEF9FEF44300E
:100CC000510508F458C02091DC0421FB882780F9E5
:100CD00090E0880F991F22FBAA27A0F9B0E0AA0F85
:100CE000BB1FAA0FBB1F8A2B9B2BC22FC1708C2B43
:100CF00023FBEE27E0F9F0E053E0EE0FFF1F5A95DB
:100D0000E1F78E2B9F2B24FB442740F930E1439FD2
:100D1000A0011124842B952B25FB442740F930E2B8
:100D2000439FA0011124842B952B26FB442740F9D7
:100D300030E4439FA0011124842B952B27FB22270D
:100D400020F940E8249F90011124822B932B2091BD
:100D5000DD04422F4170942B26952170322F330FE2
:100D6000932BA92FAA0FAA0BFB0180839183A28347
:100D7000A38380E090E0DF91CF9108959C0143E050
:100D8000369527954A95E1F72E7130E0F901E85A3A
:100D9000FE4F408151818F7090E0E82F81E002C0CA
:100DA000880F991FEA95E2F7611541F0482B592BFE
:100DB000285A3E4FF90140835183089580959095BC
:100DC00048235923F5CF1092430410924404E3E0E2
:100DD000F4E08581811102C014821682379684E086
:100DE000EB33F807B1F70895DC0160914604809178
:100DF0004504962F891301C00895292F30E0F90189
:100E0000EE0FFF1FE55CFB4F408151814A175B07E6
:100E100099F487E08A9FA0018B9F500D11244D5FAC
:100E20005B4F81E0FA0184839613E6CF2F5F3F4F3B
:100E300023702093460408952395922F9370DACF60
:100E4000FC018481862351F492819115B9F06923C4
:100E5000808583FF05C081E061110FC080E00895A7
:100E6000292F22952F709F70292B962F92959F7076
:100E70006F70962B81E02913F1CF089581E00895DA
:100E80000F931F93CF9301E0082E01C0000F0A9427
:100E9000EAF7C091F7039C2F9023A9F490910004E6
:100EA000969596959695891306C010920004109217
:100EB00001041092020467DBC027C093F703CF91AF
:100EC0001F910F91089568DBF7CF9091C8028902B6
:100ED0009001112437FF03C08093C80208952F3773
:100EE00031051CF4980F9093C8020895A0E0B0E07B
:100EF000FC01EA0FFB1FE491E41308C031E02A2F44
:100F00002327820F911DFC01849108951196A61745
:100F100078F380E008954115510511F0FA01099523
:100F20000895E091F801F091F901309739F00190BE
:100F3000F081E02D309711F00995089580E0089533
:100F40009C01FC01329680E09FEF4081461759F0EA
:100F500031969F3F19F4411101C0982F8F5F863061
:100F6000A1F79F3F09F40895290F311D97FD3A9588
:100F7000F90162830895EAE3F1E09191891302C0D7
:100F8000DF011E9291E0E034F907B9F708958091EE
:100F9000010108952FB7F894809153019091540165
:100FA000A0915501B09156012FBF08958091B604CC
:100FB0009091B704892B81F0EDDF2091F8033091F7
:100FC000F903821B930B9C0181E04091B604509180
:100FD000B7042417350708F480E008959091DD04E4
:100FE00092FF0EC0982F990F990F990F962B9093FF
:100FF0000004C9DACFDF80930104909302040895BE
:10100000C2CA9091FA03292F282359F08095892389
:101010008093FA0390E08111BDDF8093F8039093F1
:10102000F9030895CF93C82F8091DD0482FF0BC090
:101030008091FA038C1739F0ADDF8093F803909319
:10104000F903C093FA03CF9108952FB7F8946091F4
:1010500053017091540180915501909156012FBF19
:101060000895CF92DF92EF92FF92CF93DF93EC013E
:10107000C0906003D0906103E0906203F09063033E
:10108000E4DFDC01CB018C199D09AE09BF09843F67
:101090009140A105B10508F1D8DF6B017C0182E325
:1010A00090E0C092DD01D092DE01E092DF01F0928B
:1010B000E0018093D9019093DA011092DB01109244
:1010C000DC01CE01C0935E0390935F03DF91CF916B
:1010D000FF90EF90DF90CF90089584EF91E0E1CF03
:1010E00087E797E7809300089093010888E19AE0EA
:1010F0000FB6F894A895809360000FBE909360009F
:10110000FFCF089508950895FC0120914901309181
:101110004A012617370748F06115710529F49091A7
:10112000E8009E779093E8009B0190E0211531053F
:1011300041F4911106C08091E80082FF32C080E046
:1011400008958091E4018115C1F18530C1F180914C
:10115000E80083FD30C08091E80082FDECCF8091F3
:10116000E80080FFE3CF8091F3004091F200582F18
:101170002115310519F04830510558F091E04830FB
:10118000510509F090E04091E8004E774093E80067
:10119000CDCF81918093F100215031094F5F5F4F96
:1011A000E7CF8091E401811541F0853041F08091D5
:1011B000E80083FFC0CF81E0089582E0089583E0D6
:1011C0000895982F9093E900891771F07091EC00C1
:1011D0002091ED005091F00021FD09C09F5F9730F4
:1011E00089F78093E9000895762F242F50E03091FD
:1011F000EB003E7F3093EB003091ED003D7F30936C
:10120000ED003091EB0031603093EB007093EC0017
:101210002093ED005093F0002091EE0027FDDECFEB
:1012200008958091430187FF13C08091E80082FFF9
:1012300006C08091E8008B778093E8000895809144
:10124000E4018111F2CF08958091E4018115D9F371
:101250008091E80080FFF8CF8091E8008E77ECCF96
:101260002091E4003091E50095E6A9012091EC0081
:10127000822F817020FF06C08091E80080FF06C0A9
:1012800080E008952091E80022FD1AC08091E401D9
:10129000811589F0853089F08091EB0085FD0FC0C4
:1012A0002091E4003091E50042175307F9F2915084
:1012B000E1F684E0089582E0089583E0089581E0F6
:1012C0000895CF93DF93C8EDD0E088818F7E888327
:1012D000E7EDF0E080818160808384E082BF81E07F
:1012E0008093420188818E7F8883E2EE1082109283
:1012F000DA00A1EEB0E01C9288818F778883888124
:101300008068888388818F7D888319BC1092E4016E
:10131000109241011092D20110924001A0EE8C91E6
:101320008B7F8C9388818160888342E060E080E0DD
:1013300048DFA1EEB0E08C918E7F8C93E2EEF0E07E
:10134000808181608083808188608083E0EE8081FD
:101350008E7F8083888180618883DF91CF9108951B
:10136000E8EDF0E080818E7F80831092E2001092A1
:10137000DA001092E100A0EEB0E08C9181608C93D5
:1013800080818F77808319BCA7ED8C918E7F8C93A1
:1013900080818F7E8083109242010895009709F426
:1013A00008950197EFE9FFE03197F1F700C00000E1
:1013B000F5CF0F931F93CF93DF93EB018A019091A9
:1013C000E401943059F58093E9008FEF9091E800A3
:1013D00095FD06C095ED9A95F1F700008150B1F7A3
:1013E0008091E80085FF1AC03BDF811112C0809117
:1013F000E80085FD06C08091E8008E778093E800C4
:10140000F3CF88818093F1000150104011F02196B4
:10141000EECF8091E8008E778093E800DF91CF9146
:101420001F910F910895603229F440E250E0BC0111
:1014300082E0BFCF0895CF93DF93EC0148E050E006
:10144000BC0181E0B6DF88E0FE01ABE4B1E00190D1
:101450000D928A95E1F7DF91CF9108959091DD0487
:1014600092FB222720F9281771F080FB92F99093C4
:10147000DD046091DC047091DD0484E090E00E9462
:10148000133282E0AFC908951F93CF93DF93122FD9
:10149000982F942B9430C8F46530B8F498E0699F85
:1014A000E0011124C40FD11DC40FD11D98E2899F02
:1014B000C00DD11D1124632FCE0189960E94F931F0
:1014C000612FCE018A960E94F931DF91CF911F9151
:1014D0000895CF93C091FC038091FF03C82B8091A6
:1014E000FA038115D1F08091B6049091B704892B4D
:1014F00019F05CDD8111A6D98091FA03C82B20E098
:101500008AE391E0FC013081019631112F5F31E0D7
:1015100080349307B9F7211195D98091E202809523
:101520008C239091E102892B8093380148E050E0B0
:101530006AEF71E088E391E00E94B031892BB9F045
:1015400088E0E8E3F1E0AAEFB1E001900D928A951E
:10155000E1F7E091F801F091F901309741F0028054
:10156000F381E02D309719F088E391E00995CF9150
:101570000895CF93C82F811591F08450813A88F453
:10158000EAE3F1E08081C817C9F0319681E0E034E8
:10159000F807C1F76C2F88E391E0D2DC9ADFCF9196
:1015A00008958C2F805E8830D0F781E0C1FD84E003
:1015B000C0FD880FC2FD82952FD9F0CF8C2FDBDCC8
:1015C00088DFE8CFCF93DF93EC01805E9109089725
:1015D00020F06AE57BE0209711F460E57BE0CE0126
:1015E0000E947B028C2FC5DFDF91CF91089561159A
:1015F00029F02091FF0322602093FF039C013052C9
:10160000303308F490E0DECF811531F0982F9450FC
:10161000913A18F4B0DC5DCF0895982F905E983021
:10162000D8F7982F81E091FD84E090FD880F92FD1E
:101630008295F8D8F0CFCF93DF93EC01E5DFCE01B0
:10164000805E9109089720F063E67BE0209711F413
:1016500065E57BE0CE010E947B02DF91CF9108958A
:101660001F93CF93DF93182FC091D404D091D5044A
:10167000893321F0C091D204D091D304812F79DF36
:10168000209731F4812FC0DFDF91CF911F91089512
:101690008FE99FE00197F1F700C000002197F0CF9C
:1016A000811511F0B9D815CF0895811511F0BAD868
:1016B00010CF0895811531F09091FF03982B9093EE
:1016C000FF0307CF0895811511F0B4D802CF089514
:1016D0008091DD02811521F082E2F5DF1092DD02BA
:1016E00008951092FC03EAE3F1E086E011928A95F6
:1016F000E9F71092FF03EDCEF4DF8FEF94E32CE0D7
:10170000815090402040E1F700C0000088E19AE05D
:101710000FB6F894A895809360000FBE9093600078
:10172000FFCFCF93DF93EC0180911202883010F04D
:10173000D8DF80E0E82FF0E0EE0FFF1FEE5FFD4FF7
:101740009E01C08331838F5F80931202DF91CF911E
:101750000895CF93DF938FEF9FEF44305105B8F09A
:10176000FB01D081C181BDDFD093DC04C3708091C7
:10177000DD048C7FC82BC093DD046091DC04709184
:10178000DD0484E090E00E94133280E090E0DF917D
:10179000CF910895AAE2B0E0E0EDFBE00C947F3138
:1017A00083E491E0FC0101962091F100208321E087
:1017B0008B349207B9F780914401893009F457C0FE
:1017C000C8F4823009F4B2C0833009F482C0813099
:1017D00081F18091E80083FFE6C080914301909100
:1017E00044019A3008F0DFC0E92FF0E0E05DFD4CE5
:1017F0000C9454318A3009F489C08B3051F78091B0
:101800004301813231F78091470190914801892B42
:1018100001F78091E800877F8093E80002DD81E096
:1018200090914501911101C080E08093020159DF40
:10183000D0CF80914301813A61F68091E800877FA3
:101840008093E8008091470190914801892B59F0DD
:1018500060E080E090E070E057DC8091E8008B77FA
:101860008093E800B6CF68E08BE491E0F4CF8091FC
:101870004301813209F0ADCF809147019091480139
:10188000892B09F0A6CF8091E800877F8093E8003C
:101890008091E80082FF18C02091F3008091F2004F
:1018A000922F029731F48091F100813011F086304F
:1018B00021F48091F100809301018091E8008B7701
:1018C0008093E800AEDC85CF8091E4018111E0CF08
:1018D00080CF80914301813A09F07BCF809147010D
:1018E00090914801892B09F074CF8091E800877F9F
:1018F0008093E8008091E80080FFFCCF8091020196
:101900008093F1008091E8008E77DACF80914301D7
:10191000813209F05ECF8091E800877F8093E800F4
:1019200080DC809146018093000153CF8091430178
:10193000813A09F04ECF8091E800877F8093E800DC
:101940008091E80080FFFCCF80910001D9CF8038E2
:1019500089F0823841F5809147018F70873018F502
:101960008093E9008091EB0085FB882780F9109235
:10197000E90006C08091D201880F90914001892B27
:101980009091E800977F9093E8008093F100109287
:10199000F1008091E8008E7723C0811116C08091FC
:1019A0004501813009F18091E80083FF0AC08091F0
:1019B000E800877F8093E8008091EB00806280934D
:1019C000EB00AA96E3E00C949B31823061F78091A2
:1019D0004501811579F01092E9008091E800877F38
:1019E0008093E8001EDCDFCF933009F080E0809325
:1019F000D201F1CF809147018F70282F21502630DE
:101A000090F68093E9002091EB0020FFE4CF933023
:101A100031F48091EB0080628093EB00DCCF9091F9
:101A2000EB0090619093EB0021E001C0220F8A95BA
:101A3000EAF72093EA001092EA008091EB008860B8
:101A4000EBCF8111B0CF809145018F77182F809116
:101A5000E3008078812B8093E3008091E800877F0A
:101A60008093E800DEDB8091E80080FFFCCF80916E
:101A7000E30080688093E30083E0111101C082E0FD
:101A80008093E40190CF8058823008F08CCF209171
:101A90004501309146012C3D83E0380789F583E00C
:101AA0008A838AE289834FB7F894DE01139620E097
:101AB0003EE051E2E32FF0E050935700849120FF85
:101AC00003C082958F703F5F8F708A30B8F0895C59
:101AD0008D931D922F5F243169F74FBF8091E800ED
:101AE000877F8093E8006AE270E0CE0101960CDB0C
:101AF0008091E8008B778093E80055CF805DE8CF38
:101B0000832F90E08330910511F160F481309105CD
:101B100009F475C08230910509F045CF82E4E2E115
:101B2000F1E028C0209147013091480181329105B0
:101B300009F45CC08232910509F035CF21303105BE
:101B400008F465C009F02FCFECEAF0E013C0822F53
:101B500090E0223009F443C08330910580F500976E
:101B6000B9F5E0EBF1E0E4918E2FE0EBF1E00097C6
:101B700009F419CF2091E800277F2093E8002091F5
:101B8000490130914A018217930708F49C0140E013
:101B90002115310509F03FC041113DC08091E80099
:101BA00082FDA6CF8091E401811509F4A1CF853093
:101BB00009F49ECF8091E80083FFF0CF99CF09F020
:101BC000F2CEE6E6F1E0E4918E2FE6E6F1E0CFCF4B
:101BD000EAE9F1E0E4918E2FEAE9F1E0C8CFE4E828
:101BE000F1E0E4918E2FE4E8F1E0C1CF213031053E
:101BF00050F009F0D8CE89E0EDE3F1E0BBCF82E10F
:101C0000E4E5F1E0B7CF89E0E4E2F1E0B3CF84E4CA
:101C1000EEECF0E0AFCF8091E401811509F468CFDC
:101C2000853009F465CF8091E80083FD61CF809114
:101C3000E80082FDB3CF8091E80080FFA9CF4091FA
:101C4000F3008091F200942F2115310519F08830AE
:101C5000910550F041E0089709F040E08091E800DC
:101C60008E778093E80094CF44914093F1003196B1
:101C7000215031090196E8CF803809F094CE809147
:101C8000E800877F8093E800809141018093F10014
:101C900080CE811188CE80914501182F823008F0C6
:101CA00082CE8091E800877F8093E8001093410105
:101CB000B8DA1115B9F084E08093E40142E061ECF8
:101CC00081E07FDA42E261EC82E07BDA42E260ECC2
:101CD00083E077DA8091E401843051F482E08093EC
:101CE000030161CE8091E30087FDE5CF81E0E4CF81
:101CF00081E0F5CF80911601877F80931601809156
:101D0000DD02811103C082E00E941A048091160155
:101D100084FF06C08F7E8093160182E00E940C042F
:101D20008091160185FF06C08F7D8093160180E2A9
:101D30000E940C04CECBA0E0B0E0E1EAFEE00C94FF
:101D40007B31EC018B01D42E8091160182FF5FC0A4
:101D5000E090EC03F090ED03EC16FD0619F02097EF
:101D600009F055C0809116018B7F80931601C1E068
:101D700081FD10C08091EA039091EB039801281B2C
:101D8000390BC1E08091100190911101281739079A
:101D900008F4C0E080911601C0FB81F98093160120
:101DA0006C2FC7010E94BE068091FC0381FF08C012
:101DB0008091160180618093160182E00E941204D6
:101DC0008091FC0385FF08C080911601806280939A
:101DD000160180E20E9412046C2FC70108DCD114A6
:101DE00029F08091CF048076803219F18091D2045D
:101DF0009091D304D3DA8091EC039091ED039C0190
:101E00003052303308F490E016DC74DF0EC0CE019F
:101E10009052903398F48C2F90E00DDC8091EC037D
:101E20009091ED03C817D90781F30093EA0310934B
:101E3000EB03CDB7DEB7E7E00C949731CE01EDCFE1
:101E40001F93CF93DF93182FA0915C03B0915D0394
:101E5000109709F445C010925E0310925F03109230
:101E6000E2021092E1021696CD91DD9118979E0143
:101E700031503F3100F4D1E0C11101C0D0E01996DA
:101E8000ED91FD911B97309731F01B966D917D91EF
:101E900080E00995D823D11531F08C2F8450813AF8
:101EA00018F58C2F68D81115A1F0E0915C03F09122
:101EB0005D03808584FD0DC080915B03811549F031
:101EC000808191819C01215031092F333E4708F4D4
:101ED000C8D8FFDA10925C0310925D0310925B0386
:101EE000DF91CF911F910895F4DA8C2F8DDBDBCF3A
:101EF000CF93DF93EC014A855B856E857F850BD898
:101F00008B810E941A048C810E941204E2DA86E01E
:101F100019928A95E9F7DF91CF910895CF93DF93D6
:101F2000EC018D8181FD13C082608D838091FF0360
:101F30009B81892B8093FF038C810E940C04C9DA5A
:101F4000488559856E857F85CE010E948B0710924A
:101F5000E6031092E7038D8180FD02C0CE01C8DF49
:101F6000DF91CF910895A5E0B0E0E9EBFFE00C949C
:101F70007A31FE013196DF0185E01D928A95E9F7FD
:101F800041E251E0BE016A5F7F4FFE2EEF2E6A01F3
:101F900004E011E030E0D6012D916D012F3F79F082
:101FA000822F82958F70805E90E0DC018C912F7083
:101FB00002C0959587952A95E2F780FF2BC080E0B7
:101FC000382B110F015039F731934C5F5F4FE617F3
:101FD000F707E9F645E050E06F2D7E2D8DEE91E09C
:101FE0000E94B031892BC1F085E0EF2DFE2DADEEC2
:101FF000B1E001900D928A95E1F781E08093E701CD
:102000000E94CA078093E5019093E6012596E8E0D7
:102010000C949631812FD4CF8091E7018115B1F3D3
:102020000091E5011091E6010E94CA07801B910B07
:10203000059760F345E050E06DEE71E088EE91E0C9
:102040000E94B031892B49F085E0EDEEF1E0A8EE79
:10205000B1E001900D928A95E1F71092E701D6CF99
:102060009B01BA01FC013296E4914E2F50E06E17AD
:10207000710550F00496FC0165917591C9010E94AB
:10208000BD3180E090E008958FEF9FEF0895EF92CB
:10209000FF921F93CF93DF9300D000D0CDB7DEB770
:1020A0007B01FC013396149119821A821B821C82D7
:1020B000452B61F48FEF9FEF0F900F900F900F90D3
:1020C000DF91CF911F91FF90EF90089544E050E091
:1020D000BE016F5F7F4FC4DF019661F381E090E046
:1020E00002C0880F991F1A95E2F7A92FAA0FAA0B11
:1020F000BA2F49815A816B817C8184239523A62341
:10210000B72321E0892B8A2B8B2B09F420E0F701E0
:10211000208380E090E0D0CF0F931F93CF93DF9385
:1021200004EB14E0C9ECD0E0CE010E94DD31F801EF
:1021300061918F01681719F0CE010E94F931219643
:10214000C13FD10589F7DF91CF911F910F9108957C
:10215000FC013296E4912E2F30E04E17510558F0D5
:102160000496FC0185919591A9010E94BD31D4DFAF
:1021700080E090E008958FEF9FEF0895AF92BF92B7
:10218000DF92EF92FF920F931F93CF93DF9300D0D4
:1021900000D0CDB7DEB77C015B01FC013396D49053
:1021A00019821A821B821C82452B81F48FEF9FEFCC
:1021B0000F900F900F900F90DF91CF911F910F9183
:1021C000FF90EF90DF90BF90AF90089544E050E013
:1021D000CE010196BC01C70143DF019639F381E0CE
:1021E00090E00D2C02C0880F991F0A94E2F78095A9
:1021F0009095A92FAA0FAA0BBA2F49815A816B81FA
:102200007C8184239523A623B723F5012081022F07
:10221000017010E002C0000F111FDA94E2F7212FC5
:10222000220F220B802B912BA22BB22B89839A8316
:10223000AB83BC8344E050E0CE010196BC01C701F2
:1022400087DFB6CF0F931F93CF93DF9304EB14E098
:10225000C9ECD0E0CE010E94DD31F80181938F01FD
:102260002196C13FD105B1F7C6E9D2E0FE018591C3
:102270009591009711F0FC0109952C9683E0C236E8
:10228000D807A1F7DF91CF911F910F910895109278
:10229000CE041092CF048FEA8093B4041092B50458
:1022A00085E08093D00428E833E12093B60430938E
:1022B000B70422E32093CA041092CB0428EC2093A5
:1022C000CC041092CD041092D1042093D804109223
:1022D000D9041092D2041092D30420E52093D404A0
:1022E0001092D5048093D6041092DA041092DB0485
:1022F00013DFF7D91092DC041092DD0480E08460D3
:102300008093DD0460E074E084E090E00E9413328A
:1023100099CF0F931F93CF93DF93982F942B9430E3
:10232000F0F46530E0F498E0699FE0011124C40FF7
:10233000D11DC40FD11D98E2899FC00DD11D11245C
:10234000CE0189960E94DD31082FCE018A960E9427
:10235000DD31902FDF91CF911F910F91089580E093
:1023600090E0F8CF462F2091F4013091F501232B16
:1023700089F4703F39F4603F69F48091F2019091E3
:10238000F3010895753030F4982F962B943010F4A3
:10239000672FBFCF80E090E00895CF92DF92FF9249
:1023A0000F931F93CF93DF936C010091B30480913F
:1023B000B204082BC3E0D0E010E0C8010C2E02C02C
:1023C000959587950A94E2F780FD0CC02197A8F7B0
:1023D000F12C8F2DDF91CF911F910F91FF90DF9006
:1023E000CF900895FC2EB6018C2FBCDF0E941F05F4
:1023F000019761F3EECF1F93CF93DF93EC0161154B
:1024000079F0411569F0C9DF182F682FCE010E94BD
:10241000D702BE01812FA6DFDF91CF911F910895D2
:102420000E940D03182FF5CFFC01462F2781308520
:102430002115310529F4658180819181DCDF9C01C2
:10244000C9010895CF93DF93EC01A7DFBE018ADFB6
:102450000E941F05DF91CF910895FC0184818115B1
:1024600041F087819085009729F00E941F050C9408
:102470009902089580819181E5DFF9CF6F3E21E0D7
:1024800072078105910528F4CB018F5E9D4F0C9456
:10249000DD3180E0089585E290E00E94DD318739EA
:1024A00069F486E290E00E94DD31853C39F487E2F0
:1024B00090E00E94DD3191E08B3109F090E0892FAE
:1024C00081700895AAE0B0E0E8E6F2E10C9476317C
:1024D000C0901201D090130181E0809312011092FC
:1024E000130110E084E6A82E82E0B82E00E01AC0A6
:1024F00021E030E0111104C0F401859195919C0117
:102500004F2D602F812F0E94440AF39482E0880EA1
:10251000911C8F2D843061F70F5F88E0A80EB11CED
:10252000053019F04501F12CE3CF1F5F1430D1F6CF
:10253000AEDE19821A821B821C821D821E821F82BD
:10254000188688EC89871A8601EF10E07E018FEFEC
:10255000E81AF80A4AE050E0B801C7010E941732B1
:10256000065F1F4F013481E01807A1F7F7018AE0E9
:1025700011928A95E9F74AE050E0B801C7010E943C
:102580001732065F1F4F013981E01807A1F7F701E5
:1025900089E011928A95E9F78FEF9FEF8D839E83F3
:1025A00087E08A874AE050E0B801C7010E941732ED
:1025B000065F1F4F013E81E01807A1F7F70186E093
:1025C00011928A95E9F746E050E0B801C7010E94F0
:1025D00017320A5F1F4F013182E01807A1F7C0923E
:1025E0001201D09213012A96ECE00C949231AAE0E9
:1025F000B0E0EDEFF2E10C947A31E9E7F1E080E54B
:1026000011928A95E9F7E3E0F4E088E311928A9564
:10261000E9F789E7C82E81E0D82E93E0E92E94E00F
:10262000F92E01E411E0F701C082D1824AE050E0C6
:10263000B801CE0101960E94CD3188E09E012F5F46
:102640003F4FF901D60101900D928A95E1F78985F6
:102650009A85F701828393838AE0C80ED11C87E0B4
:10266000E80EF11C065F1F4F013981E01807D9F60B
:102670002A96E8E00C949631AAE0B0E0E2E4F3E1B7
:102680000C947C3103EE12E081E9E82E81E0F82E13
:102690004AE050E0B701CE0101960E94CD31F80129
:1026A000389687E011928A95E9F789819A81F80135
:1026B000808391838F8182838D81838388858483C6
:1026C000898585838B819C81868397838A8587FD15
:1026D00004C028E731E02587368780FF03C0F80172
:1026E00091E0908781FF04C0F80190859260908707
:1026F00082FF04C0F80190859460908783FF04C036
:10270000F80190859860908784FF04C0F801908557
:102710009061908785FF04C0F80180858062808782
:102720008AE0E80EF11C015F1F4F81EEE81681E0A0
:10273000F80609F0ADCF2A96E6E00C949831A6E0B1
:10274000B0E0E5EAF3E10C947C310DE712E081EEB4
:10275000E82E81E0F82E46E050E0B701CE01019668
:102760000E94CD31F80188E011928A95E9F7B8010D
:102770006C5F7F4F89819A810E941D06F8018083DA
:102780009183B8016B5F7F4F8B819C810E941D06F6
:10279000F801828393838D8186838E81878386E08F
:1027A000E80EF11C085F1F4F81E1E81682E0F80691
:1027B00091F62696E6E00C9498319B01883070F4EF
:1027C0009AE0899FB00111246F507F4F4AE050E09A
:1027D000C9010E94CD3180E090E008958FEF9FEF16
:1027E0000895AAE0B0E0E7EFF3E10C948031392FCF
:1027F000375561F4BE016F5F7F4FDFDF892B31F406
:1028000089859A852A96E2E00C949C318091CC04CB
:102810009091CD04F7CFA0E1B0E0E1E1F4E10C94B8
:102820007231FE013196DF0180E11D928A95E9F750
:102830000FE110E091E1A92E92E0B92E612C712CEC
:10284000230153944A189E2E8F2E6201730181E159
:1028500048165104610471041CF080E1C82ED12C8B
:10286000A601B501892D982D0E94EA31AC0CBD1C42
:102870000D2C000C00084C185D0860087008015011
:10288000104019F76096E0E10C948E316FEF85E20D
:1028900090E00E94F9316FEF86E290E00E94F931FA
:1028A0006FEF87E290E00E94F93160E088E290E00B
:1028B0000E94F93107DEAFDF67E985E290E00E9410
:1028C000F93165EC86E290E00E94F9316BE187E234
:1028D00090E00C94F931A0E0B0E0E1E7F4E10C9471
:1028E0007931EC0198819130E8F009F041C089819B
:1028F000813029F48A8123960E94300BF3CF8230F5
:1029000029F48A8123960E94B90AECCF833029F4F6
:102910008A8123960E94040BE5CF843041F02296F1
:102920008111E0CFCDB7DEB7E9E00C9495318A8113
:10293000239620E030E09AE0482F4053550B4A3070
:10294000510560F02115310559F3EFE9FFE03197AA
:10295000F1F700C0000021503109F4CF929FB0017F
:10296000939F700D11249A01260F371F8991E4CF90
:102970002196E92FF0E0EC51FE4F8491B82E292FDB
:1029800026952695269530E0F901EC52FE4FE4900D
:102990009770F12C092E02C0F594E7940A94E2F79F
:1029A000F901EC53FE4FC490D12C092E02C0D594EE
:1029B000C7940A94E2F72C543E4FF901049110E0B9
:1029C00002C0159507959A95E2F7E0FE03C081EEE7
:1029D0000E94B90AC0FE03C086EE0E94B90A8B2D80
:1029E0000E94B90A8B2D0E94040BC0FE03C086EE24
:1029F0000E94040BE0FE03C081EE0E94040B00FF66
:102A000071CF8CE279CFACE0B0E0E9E0F5E10C9475
:102A100070317C01FC018481811509F4A7C160E05B
:102A2000C70102DDF7012681203170F44091720266
:102A30003091710243132CC030916D02311521F099
:102A400030916E02303120F1F701358131110CC027
:102A5000903508F07DC0903208F091C0883E910515
:102A600088F4803E9105A0F48093660290936702FB
:102A7000F7018281938180936402909365021092A2
:102A8000140106C09C0131503F3170F78111ECCF29
:102A900061E0C701C9DC8C01F7018581811529F14D
:102AA000E091E603F091E7033097F9F00E171F0766
:102AB000E1F08E2F887F90E0892B09F062C0F0E072
:102AC000E295F295F07FFE27E07FFE27EA59FC4F62
:102AD00085818460858300831183CF011FDA109282
:102AE000FF0361E0C701A0DC8C018091D20281115B
:102AF0004FC0F7018581811509F4EFC0103508F04A
:102B0000D7C0103208F036C1011587E0180709F464
:102B10003FC0D0F5C801805E91090897C8F1809147
:102B2000FF039091FC03892B9091FA03892B99E084
:102B3000F701AEEBB2E001900D929A95E1F70093A8
:102B4000C5021093C6021092C8028093BD0220C035
:102B5000803E22E5920768F4803822E5920708F06B
:102B600097CF9C01205232452032310508F07CCFAE
:102B70008FCF9C0127573C4722303105F7CF2031BA
:102B8000F5CFE0E0F0E0A4CF01158FE0180739F6AB
:102B9000F70185818111D5C1173508F4CDC21835EB
:102BA00010F00C942920680189EAD80E63ED72E0D8
:102BB0008C2D03DE892B39F5C60182959295907F85
:102BC0009827807F9827FC01EA59FC4F2281213009
:102BD00009F082C22091D3023091D402232B99F0C4
:102BE0002091D5023091D602232B69F02091D70293
:102BF0003091D8024091D9025091DA02242B352B22
:102C0000232B09F473C28091DD02811509F409C3F5
:102C1000C090FC03D090FA030E94CA0788579C4ECC
:102C20008093DE029093DF02F7018581811509F41C
:102C3000F8C28D2D8C298D7909F01AC3103508F052
:102C4000CCC2103408F01BC3063E110509F4E9C2DA
:102C5000C8019052903208F0D5C28681803108F4C4
:102C600001C3C02ED12C8091160180FF12C38DEFBD
:102C70000E941A048DE2C816D104A1F008F01CC30A
:102C800088E2C816D10408F006C38EE1C816D10444
:102C900008F005C384E0C81AD1088AE1C816D10437
:102CA00008F0E6C28091FF0382608093FF03F7C2C1
:102CB000003E92E5190750F4003682E5180708F047
:102CC00067CFC80192558034910528CF98012757C6
:102CD0003C472530310508F022CF09379CE719071A
:102CE00009F04BC02091C5023091C602232B79F127
:102CF0008115A1F081E00E9465078091BD020E94CC
:102D00005A0B89E0EEEBF2E0A4E7B2E001900D92FD
:102D10008A95E1F78091C8028093730286E0F701FB
:102D2000A4E7B2E001900D928A95E1F780917302D9
:102D30008093D20284E792E066DE1092D202F7011D
:102D40008581811104C08091BD020E94630B809136
:102D50000004877059F0F7018581811539F0809161
:102D6000DD0482FF03C082E00E94F2032C96E2E1C0
:102D70000C948C3186818031D1CE0A379CE71907BB
:102D800009F006CF811509F4B1C0C090C502D090FA
:102D9000C6021091BD021983BE016F5F7F4FC6014D
:102DA0000E941D062C0189818987FDE76F2EF2E0C4
:102DB0007F2EA1E0AA2EB12C8FEF8F83F301078124
:102DC00003FF4DC0208031808280938042145304E1
:102DD000A9F484818B87202F4681682F89850E94E2
:102DE0003206811559F08B850E9484029F819817C5
:102DF0002CF4F30125815401B22A8F83481459041D
:102E0000C1F401FF16C0F30185818B87202F468115
:102E1000682F89850E943206811559F08B850E94A2
:102E200084029F8198172CF4F30124815101B22A66
:102E30008F8300FF14C08F818F3F89F481E0A81633
:102E4000B10469F4202FF301468160E089850E9476
:102E50003206811521F0F30185815401B82A88E0FA
:102E6000680E711C8DEB92E08615970509F0A6CFD0
:102E700081E0A816B10481F5012F02950F70012B96
:102E80000F7081E0103108F480E080FD006180E285
:102E9000D816E0F4D1104EC09C2C802F8D704C2D94
:102EA000811509F44AC06AE088E794E00E94760739
:102EB000A82E811109C0492D6CE084E694E00E949F
:102EC0007607A82E811531F0B02E06C0C6019052AB
:102ED000903388F1A12CB12CE9ECF2E087E011925B
:102EE0008A95E9F7A092D002B092D1028091D002E7
:102EF0009091D102892B09F42ACFF70185818115A0
:102F000039F08FEF0E9465078091C8028093C70255
:102F100086E0F701A9ECB2E001900D928A95E1F705
:102F20008091C7028093D20289EC92E06CDD10920E
:102F3000D2020DCF0D29D12CAFCF68E080E794E00D
:102F4000B5CFC80197578038910508F0DAC0003135
:102F500008F0FDCE6EEE71E080E090E08FDA811136
:102F6000F6CEA12CB12C4501011138C08E010F5FA6
:102F70001F4FF80184E011928A95E9F7B401C50169
:102F80007DDA8983811509F4E2CE240135019FEFB2
:102F9000491A590A690A790A8130E9F4B201C30170
:102FA0006DDAD82E8A83811509F4D1CEB401C5011A
:102FB0006E5F7F4F8F4F9F4F2D2D2150233038F55F
:102FC00023E0820E911CA11CB11C2401350156DAAC
:102FD0008B838115C9F0C8017EDC16C08FEE881680
:102FE00081E09806A104B10409F4B1CEB401C50191
:102FF00045DA9FEF891A990AA90AB90A8111EECF19
:103000000150B2CF2B013C0142015301B2CF2D2D13
:103010002550233078F52401350123E0420E511C60
:10302000611C711C2BDA8B83811571F384E0880E8F
:10303000911CA11CB11CB201C30120DA8C83811147
:1030400003C024013501E0CF8B819C8181302FEFBB
:10305000920710F0982F80E02D2D263029F0273090
:1030600031F00E94AE28EDCF0E947028EACF0E9476
:103070008F28E7CF2D2D243029F600DAD82E8115A0
:1030800009F465CEB401C5016D5F7F4F8F4F9F4F2F
:10309000F5D9811509F45BCE94E0890E911CA11C31
:1030A000B11C24013501282F2150330B4FEF429FD3
:1030B000C001439F900D11242D2D2150330B820F01
:1030C000931F009709F4A0CF0197EFE9FFE0319734
:1030D000F1F700C00000F5CF223009F094CD209127
:1030E000D7023091D802232B09F48DCDFC01E5598C
:1030F000FC4F20812E7F20838A599C4F0E948E0F87
:1031000082CD03378CE71807B9F48091DD02811571
:1031100019F00E94680B1BCE1092FC030E9422043F
:103120000E94CA0788579C4E8093DE029093DF026C
:1031300081E08093DD020BCE023A82E51807A1F10F
:1031400050F4C8019052903210F1013E110561F126
:10315000053E110503C0023B82E5180709F053CD77
:1031600025EE30E0277081E001C0880F2A95EAF74C
:10317000482F2091E0023091DD023115E9F0F7018E
:1031800035813115A1F0282B2093E002E0CDF70125
:103190008681803108F037CD812F8F7190E08230A9
:1031A000910511F04297DACF21EE30E0DBCF809528
:1031B00082238093E002CBCD322F342309F423CD38
:1031C000982F909592239093E0020E941204F701A9
:1031D0008581811509F4BBCD16CD003E82E5180727
:1031E000C0F4003C82E51807E0F4003A82E51807D5
:1031F00058F4003682E51807A0F4C80192558034CF
:10320000910578F068012FCD043B82E5180749F05D
:10321000F9CF09378CE7180708F507378CE7180747
:1032200088F3F7013580311409F453C00E358CE76B
:10323000180709F44AC00F358CE7180749F00D3517
:103240008CE7180709F045C0809115018115E9F157
:103250001092150180E00E94200F79CD0B378CE78A
:103260001807D5CF812F8F718431D9F2863161F063
:103270000E94680B8091E0020E940C04D2CF8681EC
:10328000803108F0EECCCDCF56EEC52E52E1D52ED2
:10329000EACC8FEFEDCC8AE2C816D10449F78091D1
:1032A000E002811531F08091FF0392E0892780933D
:1032B000FF030E94690AB5CF8CE4C816D10479F3E4
:1032C0008DE2C81682E0D806E9CF81E0809315012F
:1032D0003ECD80911501811147C0912F975509F07E
:1032E000D8C0A02E88EFA822B12CA114B10409F0F7
:1032F0002ECDE02FF0E0E295F295F07FFE27E07F03
:10330000FE27CF018A599C4F6C01D70115968C91ED
:10331000E559FC4F908180FB90F99083811509F469
:10332000F3C10E94CA078093E8039093E903F60172
:1033300082818F5F82838091FF039091FC03892BB0
:1033400083838091FA0384834681578166857785DC
:10335000C6010E948B07F601858181FF5801A0926A
:10336000E603B092E70395C0380180EE681A710851
:103370005090FB038091FC03582A8091FA03582A4D
:1033800088E06816710408F057C09801277081E042
:1033900001C0880F2A95EAF7311409F44AC0582A67
:1033A000F701808191810E940D0321E030E002C08D
:1033B000220F331F8A95E2F72B873C8780915C03AD
:1033C00090915D038F83988780916403909165034A
:1033D00089879A8743EEC42E42E0D42EA12CB12CCB
:1033E000511004C0F6018281811118C0F601838159
:1033F00090E02B858223892B89F08085982F977008
:1034000009F487E098E06916710408F0A6C0311449
:1034100009F49FC0869581708111A4C08FEFA81A0E
:10342000B80A8FE0C80ED11C88E0A816B104C1F616
:103430001CC080955822B4CF311078C080916403AD
:10344000909165030817190781F410926403109294
:103450006503109260031092610310926203109250
:10346000630310925E0310925F0380915C0390915E
:103470005D03009709F431CF28E06216710408F06B
:103480002DC1652D0E942007811103C081E00E949B
:10349000200F8091CF0480FFA4C10E94CA076C0155
:1034A000F7018581811509F4C6C18091160182FF5B
:1034B00006C040E0B60180E090E00E949B0E04311F
:1034C0008CE7180709F4B3C105318CE7180709F434
:1034D00037C103318CE7180709F476C1C80190524F
:1034E000903308F037C11092EC031092ED039091E5
:1034F000F7038091B304282F20953FEF50E0292354
:1035000035232115310519F098239093F7030B37D4
:103510009CE7190709F044C2F7019581911509F458
:1035200016CC0E9487020E94400711CC00936403CE
:10353000109365030E9425086093600370936103F4
:10354000809362039093630310925E0310925F0373
:1035500027CF82FB882780F95FCF311409F45ECF33
:1035600080FF5CCFF601808091800815190519F461
:10357000311409F453CF8F8198858C159D0509F47A
:103580004DCFF6010584F685E02D309721F080813E
:10359000811509F443CF652DC6010E9420078115CE
:1035A00009F43CCF81E00815190509F080E083217A
:1035B000482E8114910441F0811106C089859A85B5
:1035C0008816990609F02ACF80E00E94200FC09249
:1035D0005C03D0925D0381E080935B038FE08A9D62
:1035E000F0018B9DF00D1124ED51FD4F85818093ED
:1035F000E20241100EC08114910459F08081918142
:103600009C0124503109213A310508F048C00E943C
:10361000BB078FE08A9DF0018B9DF00D1124ED51C9
:10362000FD4FC680D780C60191509F3110F480EEC7
:10363000D82299249394C60101978F339E4708F0AE
:10364000912C8FE08A9DD0018B9DB00D1124AD513E
:10365000BD4F1996ED91FD911B97309731F01B9658
:103660006D917D9181E0099598229114A9F08FE0E8
:103670008A9DF0018B9DF00D1124ED51FD4F868147
:1036800097810E945F028093E10288E068167104CE
:1036900048F4C6010E9431080E94690A0DC00E94C8
:1036A000040BB7CFC6010497813A910558F46C2DED
:1036B00088E391E00E94A007411409F40ECE0E9415
:1036C000690A45CB0E94690A8FE39CE90197F1F7EB
:1036D00000C000008C2D0E94B90AEECFFC012081B1
:1036E00031810217130741F4311009C010925B03B6
:1036F00080E00E94200FF1CD311409F4EECDFC01E1
:10370000808585FDEACDF4CFF60144855585668533
:103710007785C6010E948B07F601858181FFB9CEAE
:10372000C6010E94780F8091E6039091E703081785
:10373000190709F0AECE1092E6031092E703A9CE66
:1037400090911601892F8E7F90FF816080931601E2
:103750000E947A0E8091160180FF43C00832110545
:1037600008F07EC00E31110508F08CC0C801049726
:103770004A9778F58091CF0484FD2BC0F7018581AD
:10378000811509F4EEC08091FA039091FC03892B16
:103790008D7F09F47CC01092EC031092ED038091B0
:1037A000CF0481FD74C060E0C8010E94BE0660E0E5
:1037B000C8010E94F70A8091FA038D7F0E941208C7
:1037C00082E00E94F203C3CA809116018160809357
:1037D0001601F7018581811521F01092EC031092FA
:1037E000ED0307378CE7180709F4C1C008378CE7E9
:1037F000180709F4CDC0C801805E9245809708F093
:1038000076CEF7018581811172CE0F7181E090E053
:1038100002C0880F991F0A95E2F78C01682F83E098
:1038200090E00E94F931802F0E94BD0290CA8091E1
:1038300016018E7F8BCF809116018F7E013E110580
:1038400031F0053E110531F4809116018F7D809392
:10385000160180CFC8019052903308F07BCF47CE3D
:103860000933110560F40D32110520F40B321105F6
:1038700009F0AFCF8091CF0482FDABCF7FCF04366C
:103880001105F6CF8091CF0483FDA3CF77CF89E0D8
:10389000F701AEEEB3E001900D928A95E1F7109238
:1038A000F0031092F1038091EC039091ED0308175F
:1038B0001907C9F52091CF0425FF35C030911601B5
:1038C00031FF02C026FF2FC02091EA033091EB03A5
:1038D0005601A21AB30A0E94F113A816B90618F5E8
:1038E0008091FC0381FF08C0809116018061809364
:1038F000160182E00E9412048091FC0385FF08C03B
:103900008091160180628093160180E20E94120469
:1039100060911601669561708091EC039091ED03C2
:103920000E94F70A14CA8091FA039091FC03982B25
:1039300091FBBB24B0F88D7F0E9412080093EC032A
:103940001093ED03C092EA03D092EB038B2D880F06
:103950008460982F80911601897F982B909316018F
:103960002FCF40E0B601C8010E949B0EF0C9F701BD
:103970008581811549F081E00E94C30243E062E045
:1039800081E00E944003E3C981E00E94CC02F6CFAF
:10399000F7018581811511F082E0EECF82E0F5CF4D
:1039A000003482E5180708F0C5C0003282E5180728
:1039B00008F0C6C0F7016581103508F09EC01034CC
:1039C00008F0D2C0F70185818115B1F00A358CE786
:1039D000180709F407C108F0DEC001308CE71807AA
:1039E00009F4FEC003308CE7180709F4F3C0011591
:1039F0008CE7180709F4E1C0F701878190850097EB
:103A000009F4F4C00E941F05082FD92E86E0F701A3
:103A1000DE01119601900D928A95E1F7F701B580CC
:103A2000C680C2949FE0C92280910004877001F192
:103A3000AB2CB114F1F08D2D807F803461F0802F9C
:103A4000805E8830A8F08D2D807E803221F4023097
:103A500078F0C11469F08091DD0482FF09C082E032
:103A60000E94F203809100048770AA24A39481111C
:103A7000A12C9D2C92948FE09822892D883009F4F6
:103A8000B3C108F0CAC0823008F4D9C0825F8F7019
:103A9000823008F40AC1892D8850990B049718F4D4
:103AA0000E949107A12C802F9D2D0E9499028115C3
:103AB00041F0B11409F4A3C2C11409F497C21092E1
:103AC000E004A114A9F08091000480FD11C0F70169
:103AD00015828695869586950E94C302C7010E942D
:103AE0000315809100048695869586950E94CC02E8
:103AF00060E0C7010E94141239C9C8019055923084
:103B000008F060CFC80125E0969587952A95E1F7E2
:103B10008F702091F70341E0082E01C0440F0A94F2
:103B2000EAF72423232B09F44DCF6111FCCC10922A
:103B3000FC03C5CDC801805C9245809708F042CF58
:103B4000802F8F712091F70341E0082E01C0440FB0
:103B50000A94EAF72423232B09F434CFF701958143
:103B6000911509F4F4C8DFCC8681803108F02ACFA2
:103B7000611128CF212F2F7081E090E002C0880FC3
:103B8000991F2A95E2F72091F70382239323892B2B
:103B900009F418CFDCC80B358CE7180729F10C3570
:103BA0008CE7180709F028CF8091DD04002482FFFC
:103BB0000394802D0E942E0A1FCF0E94710B8FEF5D
:103BC00094E32CE0815090402040E1F700C00000D9
:103BD0000E9470086FEF7FEF80E090E00E94133248
:103BE0000E947C0B81E0E6CF80E0E4CF8581C0803D
:103BF000D180811569F0C6010E94CD11182F682F60
:103C0000C6010E94D702B601812F0E94B211FACEDE
:103C1000C6010E940D03182FF6CF893009F455C153
:103C20008A5F8F70823008F036CF023F09F05DC1A5
:103C30008D2D8F71B11056C10E94C3022CCF1D2D46
:103C40001F708D2D803110F01295107FB114B9F0D6
:103C5000111559F0802F805E883010F0011109C0D5
:103C6000812F0E940C040E94690A802F0E94B90AC9
:103C700012CF8091FF03812B8093FF03F4CF802F1D
:103C80000E94040B111509F406CF802F805E883046
:103C900010F0011104C0812F0E94120403C0812F73
:103CA0000E941A040E94690AF6CE1D2D1F708D2DE8
:103CB000807F803211F01295107F013040F009F4BE
:103CC00072C0B11409F47EC0C114D9F0CECF809176
:103CD000DD0482FD12C0B11449F0111529F0812FC5
:103CE0000E940C040E94690A80E0C0CF80E00E941C
:103CF000040B111509F4CFCECECFB11491F1C11040
:103D000004C0812F0E94500BC6CE8C2D813089F4C7
:103D10008090FA03812F8821181709F4BCCE0E94E5
:103D2000CA078093F8039093F903812A8092FA03DB
:103D3000B2CE8091D004823008F4ADCEC812ABCEA2
:103D4000812F0E94500B812F0E9401088091FB035C
:103D5000912F9823191709F49ECE812B8093FB0392
:103D60009ACEC11011C0812F0E94550B812F0E9445
:103D700001088091FB03912F982309F48CCE1095B4
:103D800018231093FB0387CE8091D004823008F46F
:103D900082CE8C2D813009F07ECE8091FC03812370
:103DA00009F479CEE0CF8091D604B11421F08C15BE
:103DB00008F471CEA6CFC81608F06DCE812F0E94F0
:103DC000550B69CEC114D1F38091D4049091D504E0
:103DD000093321F08091D2049091D3040E94CE093E
:103DE000802F0E94040B57CE8D2D8370A1F5B1104A
:103DF00052CE802F829586958770880F880F402F2E
:103E00004F70082E01C0440F0A94EAF7202F20714A
:103E100004FF06C02FE001C0220F8A95EAF7209523
:103E20009D2D969596959370923081F0822F842BDC
:103E3000933031F08091B204913029F0242B822309
:103E40000E94BD0228CE842B822BFACF242B809196
:103E5000B2048227F5CFB11461F1D0FE1CCE802FC1
:103E6000829586958770880F880F402F4F70082E97
:103E700001C0440F0A94EAF7202F207104FF06C006
:103E80002FE001C0220F8A95EAF720959D2D969587
:103E9000969593709230A1F0822F842B933031F05D
:103EA0008091B304913049F0242B82230E94C002F8
:103EB000F2CD823008F4EFCDD2CF842B822BF6CF17
:103EC000242B8091B3048227F1CF1D2D1F70B114D4
:103ED00029F0812F0E94C302802F14CF802F0E94CF
:103EE000550B812F0E94CC02D6CD60F4003FB9F073
:103EF000013F81F0B11409F474C0C110B6CE8D2D0C
:103F00008F719ACE033F09F1043FA1F78091DD0440
:103F100082FD27C08D2D8F71B11421F38DCE80913C
:103F2000D604B11471F0C81608F0B5CD2D2D2F713F
:103F300081E001C0880F2A95EAF79091B3048927A0
:103F4000B5CF8C1508F4A7CDF1CF80E0B11409F4FA
:103F5000ADCF81E09D2D9F7101C0880F9A95EAF742
:103F6000A5CF8091D004823048F1B114C9F090916E
:103F700000049770943059F41092000410920104D8
:103F8000109202048D2D8F710E94CC0289CD63E0C6
:103F9000C81608F085CD8D2D8F710E94EE0780CD5B
:103FA000C81640F01092000410920104109202040E
:103FB00064E0F1CF81E00E94F20372CDB11431F0E0
:103FC00063E08D2D8F710E94EE0765CD81E00E9428
:103FD000F2038C2D823008F45ECD82E00E94F20361
:103FE0005ACDC110F1CE8D2D8F717CCF8091FE0303
:103FF0008093FD038091FC038093FE0362CD40E03B
:1040000060E089819A810E94FB111091FC03C11428
:1040100029F01092E0041093FE0353CD2091DE04AA
:104020003091DF0482179307B1F78091D10482FFAA
:10403000F0CF8091E004811561F38091FD030E942F
:10404000500B802F0E94300B8091FD030E94550B76
:10405000E0CF03378CE71807BDC8EF92FF920F93AC
:104060001F93CF93DF9380916E02803108F047C099
:1040700080916D02811509F442C080917202909185
:1040800071029817E1F17C0199E0899FE001112408
:10409000FE01ED5EFD4F84818115B1F1918180912A
:1040A0006902981331C090818091680298132CC0E6
:1040B0008581811129C00281138180916A029091CA
:1040C0006B02081B190B60E088E692E00E94141254
:1040D0000E94F11308171907B8F480916E028F70CF
:1040E000806180936E02C75EDD4F88818F70806132
:1040F000888388E692E00E9403150E94E803CDB70A
:10410000DEB7E6E00C949831C70183958770B7CF8E
:10411000EF92FF920F931F93CF93DF93F82EE92E28
:10412000C091720280917102C81791F189E0C89F15
:10413000E00111248E010D5E1D4FF801858181156E
:1041400089F0C8010E942D12811561F0FE01E75E21
:10415000FD4F80818F7080618083F8018081918123
:104160000E94910BC8010E940315809172029091E8
:1041700073020196877080937202CD5EDD4F898154
:104180008E11CECF88818F11CBCF8D81811541F2D9
:10419000CDB7DEB7E6E00C949831FF920F931F93F2
:1041A000CF93DF93EC0180911401811539F0F12C4C
:1041B0008F2DCDB7DEB7E5E00C9499310A811B81D4
:1041C000061B170B043F81E0180788F760E0CE015B
:1041D0000E9414129C013052303348F70E94BE03F3
:1041E000811529F380916602909167020E94BE03B7
:1041F000F82E8115E1F28091DA049091DB04853F7D
:1042000021E0920710F084EF91E00817190778F683
:104210008E818F7080618E83888199810E94910B3D
:104220000E947D03CE010E940315C2CF2F923F92C0
:104230005F926F927F928F929F92AF92BF92CF9236
:10424000DF92EF92FF920F931F93CF93DF93CDB73F
:10425000DEB72F970FB6F894DEBF0FBECDBF8C012F
:1042600086E0F801DE011A9601900D928A95E1F739
:10427000F80170806180E280F380848095803091C5
:104280001202E0E09114A9F128E6C22E22E0D22E1B
:1042900080916C02811157C08114D1F0911409F4FE
:1042A00072C2C8010E942D12811509F46CC260917E
:1042B000640270916502C80170DF811109C089E054
:1042C000F801A8E6B2E001900D928A95E1F7C5DE0B
:1042D000FF24F39499C0880F991F8E5F9D4FDC01D6
:1042E00011962C911197261103C08C91781649F0E4
:1042F000EF5F8E2F9E2F990F990B831791055CF31B
:10430000C3CFEF3F09F4C0CFD80116968C918F70C0
:1043100080618C93E317A0F4315030931202E317BD
:1043200078F4F0E0EE0FFF1FEE5FFD4FA32FB0E03B
:10433000AA0FBB1FAE5FBD4F8D919D91808391836E
:104340000E947D03A1CF60E088E692E00E941412F3
:104350001C0150906D0280916A0290916B0257018E
:10436000A81AB90A60E088E692E0511409F462C222
:104370000E9414120E94F113A816B90608F007C291
:10438000811409F4A5CF90916902F8018181D09040
:104390006E022D2D203108F0CFC198136AC0909184
:1043A00068028081981365C020916F02309170027D
:1043B000878190852817390709F05BC0911059C093
:1043C0008D2D8F70806180936E0288E692E00E944E
:1043D000031580916E02F8018683C0906A02F09006
:1043E0006B020091720280917102081751F089E00E
:1043F000089F800111240D5E1D4FF80185818111F8
:104400001CC00E94E803F12C8F2D2F960FB6F89454
:10441000DEBF0FBECDBFDF91CF911F910F91FF90F7
:10442000EF90DF90CF90BF90AF909F908F907F9054
:104430006F905F903F902F900895D280E380C801E5
:104440000E942D1281110EC0C8010E940315809197
:104450007202909173020196877080937202CD2C44
:10446000FE2CBFCF6C2D7F2DC80197DE8111EFCFC1
:10447000C8CFC1019052903308F07BC09110F8C0B2
:1044800040E0662D872D0E945E03811147C040E009
:10449000662D872D0E945E03F82E811509F419C13F
:1044A0008091D10480FFAFCF88E692E00E9403158F
:1044B00060E088E692E00E9414128C017090720213
:1044C000C72C88E0D82E98E6892E92E0992E80910C
:1044D0007102C81689F0560129E0C29EC00111245C
:1044E0008D5E9D4F7C0160E00E941412582E692E53
:1044F000F701858181118EC08D2D883008F4B5C0FB
:104500008A859B8505DE0E947D030E94E803E8E61C
:10451000F2E089E011928A95E9F775CF60E0C80171
:104520000E9414128091D10483FFB1CFB80188E6B4
:1045300092E00E948A038111AACF80916E028F704F
:10454000806180936E0280916802909169020E945E
:10455000910B88E692E00E940315E8E6F2E089E01C
:1045600011928A95E9F78A859B85D2DD0E947D03A9
:1045700048CF911409F48BCF80916E0281608093B3
:104580006E028091D10481FF3ECF88E692E00E94C6
:1045900003150091720280917102081709F4C5C0D9
:1045A00029E0029FC00111248D5E9D4F7C010E9475
:1045B0002D12811509F4B9C089E0F701A8E6B2E02F
:1045C00001900D928A95E1F7C80101968770082F36
:1045D000809372020E94E80380917102081709F427
:1045E00010CF89E0089F800111240D5E1D4FC80186
:1045F0000E942D12811105CFC8010E940315209140
:104600007202309173022F5F3F4F2770022F209369
:104610007202E2CF1052103308F06ECF8091D104B5
:1046200083FD0AC0DC2C95012395822F8770C82E4C
:10463000052D162D47014BCFB701C4010E948A03F7
:10464000811589F3EFCF29E0729EC00111248D5EA0
:104650009D4F0E94031520917202309173022F5FCB
:104660003F4F2770722E20937202D710ECCF48CFA5
:1046700080916E02816080936E0260E0C8010E94AA
:1046800014128091D10483FF7CCFB80188E692E0B8
:104690000E948A03811175CF80916E028E7FF82E61
:1046A00080936E02C8010E942D128111ACCE8F2D15
:1046B0008F70806180936E02809168029091690290
:1046C0000E94910B0E947D0388E692E00E940315F0
:1046D0001ECF8A859B850E942212292F22952F703A
:1046E000903450F49F70223080F0911599F0F801C9
:1046F0009681903178F488CE2A5F2F70223078F03E
:10470000C8010E940315F52C7FCE911519F0811573
:1047100009F47ACE805E883008F476CEF1CF803FFF
:1047200008F472CE815F8330F7CFE8E6F2E089E0EB
:1047300011928A95E9F750CF98131DC090916802A5
:104740008081981318C020916F0230917002878188
:1047500090852817390779F491100DC0D682C801C9
:104760000E94031589E0F801A8E6B2E001900D92DD
:104770008A95E1F7ADCDC8010E942D12811519F07F
:104780008D2D91103AC0C8010E940315A1CDB090A3
:104790006E028B2D803130F488E692E00E94031582
:1047A000F601B7CE811409F493CD90916902F80116
:1047B000818198131AC0909168028081981315C066
:1047C00020916F02309170028781908528173907F8
:1047D00061F491100AC0B682C8010E940315F60167
:1047E00089E011928A95E9F773CDC8010E942D12D4
:1047F000811549F2911439F28B2D803208F45FCD86
:10480000809168029091690289839A83EB82FC828D
:1048100080916C028D831E8280916E028F838091C5
:104820006F029091700288879987CE0101960E944D
:10483000031545CD0E9414120E94F113A816B90663
:1048400008F0AECF811409F443CD911409F49BCF45
:1048500090916902F8018181981336C090916802A5
:104860008081981331C020916F023091700287814E
:1048700090852817390741F580916A0290916B0263
:10488000E81AF90A60E088E692E00E94141280912A
:10489000D8049091D904E816F90608F063CF9091F6
:1048A0006E0290FD5FCF903108F45CCF892FF80144
:1048B0009683907F903F09F452CF982F907F905F1E
:1048C0008F70892B86834BCFC8010E942D128115D2
:1048D00061F06091640270916502C8015EDC81152F
:1048E00009F4EDCCE8E6F2E07BCF80916E028160C6
:1048F00080936E0248CFA2E1B0E0E1E8F4E20C94CC
:104900007E310A871B872C873D874E875F87688BA0
:10491000798B8A8BCE010A9689DC81112EC0209179
:1049200071023091720289E0AE01465F5F4FFA0179
:1049300049505109DA0101900D928A95E1F78E856F
:104940008115D9F0822F90E08395877090E0AC01BB
:1049500034171506D1F199E0929FD0011124AD5E74
:10496000BD4F9E012F5F3F4FF90101900D929A9527
:10497000E1F7409371020E94E803809172029091E6
:104980007102891749F029E0829FC00111248D5ED0
:104990009D4F4CDC811126C08E85811112C0809103
:1049A000140181110EC08C859D8520916402309187
:1049B0006502821B930B8F3F9F4318F081E0809329
:1049C00014016296E4E00C949A310E94710B1092EB
:1049D000710210927202E8E6F2E089E011928A9583
:1049E000E9F7CBCF809172029091730201968770A4
:1049F00080937202C2CFEF92FF920F931F93CF93D7
:104A0000DF938091AF04E0915701CDE0811139C06F
:104A1000CDB7DEB7E6E00C949831DE2FDF5FD093A0
:104A20005701EE2EF12CCE9FF0011124E95BFB4FD4
:104A30008481811529F187819085892B21F48185D5
:104A40009285019651F40081118122813381448144
:104A500055816681778180854EDFCE9DF001CF9DA7
:104A6000F00D1124E95BFB4F14828091DD0281156A
:104A700021F08091160180FD0DC08FEF0E941A0475
:104A8000ED2F8091AF04E81740F21092AF0410921E
:104A90005701BECF8DEFF2CFA0E0B0E0E2E5F5E246
:104AA0000C947231C091460497E0992E01E010E019
:104AB000809145048C1308C09EDF0E94E306CDB7A9
:104AC000DEB7E0E10C948E31D0E0FE01EE0FFF1F67
:104AD000E55CFB4F80819181989ED001999EB00D3D
:104AE0001124AD5FBB4F2D01FD01248121115BC05D
:104AF0007090AF04E7E4F4E060E070E0812C6715AB
:104B000008F04FC0A384B484D201CD90DD902FEF84
:104B10003FEF612C462D50E07601E60CF11CE60CCF
:104B2000F11CD701ED90FD90E114F10439F0AE14C1
:104B3000BF0409F0A90163949A01ECCF2F3F32071B
:104B4000B1F1D80101C0AA0F2A95EAF78A2A980183
:104B5000062C02C0220F331F0A94E2F7A90141502C
:104B600051098416150611F52DE0269FF001279FA7
:104B7000F00D1124E95BFB4F989ED001999EB00D7A
:104B80001124AD5FBB4F12962D913D912783308745
:104B900024E02483108211828187928721E011967C
:104BA0002C930E94F406C395C37082CF14826F5F6A
:104BB0007F4F3D96A4CF1092B0041092B104109292
:104BC000170180914504809346040E94E30613CFA9
:104BD0002F923F925F926F927F928F929F92AF92AD
:104BE000BF92CF92DF92EF92FF920F931F93CF93DA
:104BF000DF93CDB7DEB76C970FB6F894DEBF0FBE6C
:104C0000CDBF4B8B5C8B6D8B7E8B8F8B192F988FD1
:104C1000811509F475C040E0692F8B899C890E9439
:104C2000FB11111549F01092E0048093DE0490937B
:104C3000DF041092FF030AC02091DE043091DF04EC
:104C40002817390719F481E08093E004188A198A3B
:104C50001A8A86E0FE017396DE011A9601900D9283
:104C60008A95E1F78091DD0482FF21C08091B6042E
:104C70009091B704892BD9F00E94CA0720910104B2
:104C800030910204821B930B2091B6043091B7043B
:104C90008217930738F08091000482FD03C082E000
:104CA0000E94F2030E94D60781110E9422048E8581
:104CB0008115D9F061E0CE010A960E94141261E0DC
:104CC000CE010A960E94141261E0CE010A960E945B
:104CD00014125C0180E5A8168CE7B806A9F48F854C
:104CE000811549F181E0809317010A851B852C8588
:104CF0003D854E855F85688979898A89FCDDCDC0CF
:104D0000911509F4A3CF95CF81E5A8168CE7B806D5
:104D100029F48F85811579F04EDFE7CF82E5A8165B
:104D20008CE7B80641F48F85811529F08091170131
:104D30008111F2CFD7CF23E0E22E24E0F22E712CA6
:104D4000812C912C6F84F70160817181DD24DA94CC
:104D5000CD2C80E0282F30E0FB01E80FF11DE80F9B
:104D6000F11D408151814115510539F0A416B50658
:104D700009F096018F5F6901EDCF9FEFC916DC0442
:104D800009F476C1F7014481509017014111512C6B
:104D9000F70135802681611409F415C1511409F415
:104DA00012C10091CA041091CB04311012C041E02D
:104DB00001C0440FCA94EAF7242B268320914304B0
:104DC000309144042017310720F4009343041093DA
:104DD000440421E030E002C0220F331F8A95E2F73D
:104DE000C9010197F70126812817190609F0CFC0DC
:104DF000C090B004D090B104C114D10409F465C0CE
:104E00000E94CA078C199D090817190708F05DC090
:104E100081E0F7018483782A8FEF881A980A87E067
:104E2000E80EF11C88E08816910409F08BCF61141C
:104E300009F420C1711409F41DC10E94CA078093AE
:104E4000B0049093B1048091AF04883030F5982F6E
:104E50009F5F9093AF0499E0FE013A969E012F5F09
:104E60003F4FD90101900D929A95E1F72DE0829F75
:104E7000C0011124895B9B4F29E0AE014F5F5F4F5A
:104E8000FA01DC0101900D922A95E1F72FEF3FEF37
:104E9000FC0121873287A386B4866C960FB6F894FE
:104EA000DEBF0FBECDBFDF91CF911F910F91FF905D
:104EB000EF90DF90CF90BF90AF909F908F907F90BA
:104EC0006F905F903F902F9008953091460420910D
:104ED0004504432F80E090E057E0A1E0321709F449
:104EE00044C0232E312CF101EE0FFF1FE55CFB4F78
:104EF00000811181509FF001519FF00D1124ED5F51
:104F0000FB4F808191818B8F9C8FC12CB0E0D12C85
:104F1000EB8DFC8DED0DF11DED0DF11D808191816D
:104F20000097D9F0F70160817181698F7A8FB0E0C5
:104F300007C0E1E08617970709F0E0E0CE2ABF5FDF
:104F4000E98DFA8DEB0FF11DEB0FF11D6081718181
:104F50006115710571F7D394DBCFC11489F1BD15CB
:104F6000C0F481E0F7018483C701409346048E15A5
:104F70009F0569F030E0F901EE0FFF1FE55CFB4F84
:104F8000808291822F5F3F4F237020934504852DAF
:104F900042CF509FC001519F900D11248D5F9B4FB8
:104FA000FC01A4838E159F05F9F2341304C0BA01E5
:104FB0006395462F4370B1016395362F33708ECFC2
:104FC00080E090E0F8CF31101FC061E070E002C0D7
:104FD000660F771F8A95E2F7CB0101978217930737
:104FE00069F0512C81E001C0880FCA94EAF7C82EFD
:104FF000C094F70186818C218683C9CF411591F336
:10500000C4010E94F406EDCFA9010C2C02C05595F5
:1050100047950A94E2F7C901019782239323892BCC
:1050200021F540FF22C0F70182819381892BC9F0CD
:10503000FE01319687E011928A95E9F70E94CA072E
:105040009C018B839C8384E08D83F7019281838113
:10505000792F9887898709811A8144E05E816F8161
:105060004ADCF7011582532CBDCF4170542EBACFC4
:1050700080E0D1CE9091460480914504981731F09C
:105080000BDD872D813009F408CF2FCEB4DC1092D0
:10509000B0041092B1040E94E306F3CFA6E0B0E0A2
:1050A000E4E5F8E20C947E310E94CA078C018091FD
:1050B000F6019091F7018017910771F019821A8219
:1050C0000E94CA07BC0149815A8180E090E080DDDE
:1050D0000093F6011093F7012696E4E00C949A31C0
:1050E000A6E0B0E0E6E7F8E20C9480318093F201AC
:1050F0009093F301903230F40E94E20A2696E2E0A7
:105100000C949C3180EF89838A830E94CA07816056
:10511000BC0149815A8181E091E05ADDEFCFA6E0E0
:10512000B0E0E5E9F8E20C9480318093F2019093CD
:10513000F301903230F40E941B0B2696E2E00C94AF
:105140009C3180EF89838A830E94CA078160BC01F9
:1051500049815A8181E090E03BDDEFCFCF93DF932F
:10516000EC01BEDF8091D2049091D3040E94CE095D
:10517000CE01D5DFDF91CF9108950F931F93CF9389
:10518000DF938C01862F63ED72E00E94DD13892B83
:1051900091F4C091D302D091D402209761F0F8012C
:1051A0008281833039F4CE01D9DFCE01D7DFCE0141
:1051B000D5DF01C0E0F7DF91CF911F910F910895E6
:1051C0000F931F93CF93DF938C01C62F63ED72E093
:1051D0008C2F0E94DD13892B09F058C0EC2FF0E0D2
:1051E000D80112968C911297E753FE4F8130A9F4A3
:1051F00015968C9182FD4FC080FF4DC082E0808368
:105200008091D5029091D6020097C1F48091D3028B
:105210009091D4020097D1F111C08230A9F5D80144
:1052200015968C9182FD26C080FD0AC083E08083A4
:105230008091D7029091D8020097F1F051DF26C0FB
:1052400084E080838091D9029091DA020097B1F7CF
:105250008091D3029091D402009701F17FDF809179
:10526000D5029091D602009749F78091D302909190
:10527000D402E4CF85E080838091D3029091D40260
:10528000009721F06BDFF1CF86E08083DF91CF9133
:105290001F910F91089581E08083B8CF8091D5024E
:1052A0009091D602B7CF0F931F93CF93DF938C01CA
:1052B000C62F63ED72E08C2F0E94DD13892BA1F4C1
:1052C0008091D2049091D3040E94CE09D0E0C753BC
:1052D000DE4F8881F801128218828330E9F048F4A9
:1052E000813059F0823081F0DF91CF911F910F9181
:1052F00008958430B1F08530B9F78091D302909150
:10530000D402009789F306C08091D5029091D6020D
:10531000009799F304DFE8CF8091D7029091D802EB
:10532000F7CF8091D9029091DA02009799F72091F6
:10533000D3023091D4028091D5029091D6022115EA
:105340003105F9F2009731F7C901E4CFCDB7DEB7E7
:10535000AA970FB6F894DEBF0FBECDBF85B78068A1
:1053600085BF85B7806885BF84B7877F84BF0FB648
:10537000F894A895809160008861809360001092F5
:1053800060000FBE80E890E00FB6F8948093610053
:10539000909361000FBE81E08093030186EF95E05A
:1053A00080933601909337010E9405060E94F71200
:1053B0000E943C130E949F130E9422110E94B00978
:1053C0000E9461098091E20084608093E2007894F9
:1053D0008091E401811599F08091E9001091EC0031
:1053E0008F7010FB112717F9182B1092E90080918C
:1053F000E80083FD0E94CA0B1F701093E90082E051
:1054000084BD93E095BD9AEF97BD80936E000E9496
:105410004B12811102C00E94461441E251E025E383
:1054200031E001E0DA0160E070E08D918F3F99F0AA
:10543000E82FE295EF70F0E0F1A08F70C02E01C070
:10544000CC0C8A95EAF79C2D90959F2191A392A16F
:105450008C2D892B82A36F5F7F4F6430710529F7F4
:105460004C5F5F4F24173507E9F6E8EEF1E085E081
:1054700011928A95E9F7EDEEF1E085E011928A95B7
:10548000E9F780E090E0A1D7833E9E4F21F40E948F
:105490004B12811123C063EE7EEF80E090E0C3D712
:1054A00060E082E090E0A5D781E08093B20461E003
:1054B00083E090E09ED760E074E184E090E0B3D7B1
:1054C0000E94461460E070E0AB018FE090E0A3D74B
:1054D00060E070E0AB0183E190E09DD782E090E076
:1054E0006CD78093D30184E090E06FD78093DC0485
:1054F0009093DD040E94B30F8FE39CE90197F1F7CD
:1055000000C000000E94B30F8091E80180FF07C037
:105510006FEF7FEF80E090E086D70E94700883E015
:1055200090E04BD70E94BD0284E091E08093F801A7
:105530009093F90109ED11E08091E401853049F47F
:105540008091E401853009F44BC00E94710B0E94E8
:1055500091070E94B30F74EDE72E71E0F72EE8EE8D
:10556000CE2EE1E0DE2EF601D7019D9180810A1753
:105570001B0709F46AC031969817B9F3B12CF601EC
:10558000A1906F01F70161907F016A1411F16A2403
:10559000912C77247394862D8721A1F09982BA8269
:1055A0000E94CA078B839C8381E08D8391E08A2DC2
:1055B000872109F490E09E8349815A816B817C8127
:1055C0008D8106DB9394770C892D843021F7F701C8
:1055D000A292B3948B2D853091F60E94250838C095
:1055E0008091E401843021F11092D10188E190E0B2
:1055F00020E40FB6F894A895809360000FBE209326
:10560000600083B7817F846083BF83B7816083BF7D
:105610007894889583B78E7F83BF0FB6F894A8954A
:1056200080916000886180936000109260000FBEDE
:105630000E94B30FE8EEF1E08081811174C43196CD
:1056400081E0ED3EF807C1F77BCF981397CF26DDB9
:10565000E0905E03F0905F03E114F104A1F140904B
:10566000DD015090DE016090DF017090E0010E944A
:105670002508DC01CB0184199509A609B7094091D9
:10568000D9015091DA016091DB017091DC0184173E
:105690009507A607B707B8F0C7010E94E20A109263
:1056A0005E0310925F031092DD011092DE011092F2
:1056B000DF011092E0011092D9011092DA011092EC
:1056C000DB011092DC01C090E603D090E703C11427
:1056D000D10429F1A090E803B090E9030E94CA0721
:1056E0008A199B097C01C6010E94F1138E159F0542
:1056F000B0F48091E603282F287F30E0232B09F0B7
:10570000ABC090E082959295907F9827807F9827F4
:105710008A599C4FFC01258122FF0E948E0F8091A7
:105720001701811511F1E090B004F090B104E1147B
:10573000F104D9F00E94CA078E199F0920914304F1
:10574000309144042817390780F4909146048091E1
:105750004504981709F483C09FD91092430410920E
:1057600044041092B0041092B1048091CF0480FFE1
:105770001CC08091160182FF18C00E94CA072091A8
:10578000EA033091EB03AC01421B530B2091100153
:10579000309111014217530740F041E0BC01809164
:1057A000EC039091ED030E949B0E8091DD02811528
:1057B00069F00E94CA072091DE023091DF02821B4D
:1057C000930B8F3F9F4710F40E94680B0E94910734
:1057D0009091E101891721F08093E1010E94250851
:1057E0008091E401843009F0A7CE83E08093E90042
:1057F0008091E80082FFA0CE8091E80090E085FFD4
:1058000009C00E94300950E2C52ED12C7E018115BD
:10581000B1F191E08091E8008B778093E8009115D9
:1058200009F48ACEE090F401F090F501E981E114E9
:10583000F104B1F1EE3F09F05CC08A81833020F0C1
:105840008550833008F055C0EA81EE3008F051C031
:10585000F0E0E65CFD4C28C580E090E05BCFCBD863
:105860001092B0041092B1040E94E3067ECF8091A2
:10587000F100F701808381E0C81AD10851F28FEF5F
:10588000E81AF80A8091E80085FDF1CF8091E800E0
:105890008B778093E8000E943009811599F3B9CF86
:1058A000E43148F4E11549F0E150E33130F4F0E03F
:1058B000E85BFD4CF9C4EE3F39F28FEF60C31A820A
:1058C00089E08B8316C08A81823061F0833019F1C0
:1058D000813099F70E942508FCD46B837C838D83EB
:1058E0009E8307C088E290E068D51B821C821D82DF
:1058F0008E83E091F801F091F901309709F41CCE04
:105900000284F385E02D309709F416CE60E2CE01D3
:105910000196099511CE8091120190911301892B66
:1059200041F385E0E8EEF1E0DE01139601900D927F
:105930008A95E1F7DECF8A81823009F0BECF6B8194
:105940007C818D819E81C5D488E290E052D5D1CFF3
:105950004C816B818A810E94891198278927982719
:105960008D839E83C6CF2D813E8132272327322708
:105970004C816B818A810E94440ABBCF0E946212D3
:10598000B8CF80E18A83B5CF81E08A838FEE99CF4B
:105990008C818D3108F0ADCF4A805B805424452442
:1059A0005424612C712C7E019FEFE91AF90A6701DA
:1059B000C80ED11CEC14FD0409F49BCF8FEE4816E1
:1059C00081E058066104710478F4C2018F5E9D4F36
:1059D000F4D4F70184838FEFE81AF80A8FEF481A9E
:1059E000580A680A780AE6CF80E0F3CF8091120166
:1059F00090911301892B09F47CCF9C80892D8D31E6
:105A000008F077CFAA80BB80BA24AB24BA24C12C7B
:105A1000D12C7E018FEFE81AF80A260132014914D1
:105A200051046104710408F064CF8FEEA81681E080
:105A3000B806C104D10430F4F7016481C5018F5E5A
:105A40009D4FD7D48FEF481A580A680A780A8FEF0B
:105A5000A81AB80AC80AD80A8FEFE81AF80ADFCFDE
:105A60000E940B1446CF84E08DCF9C80892D8D3110
:105A700008F03FCFAA80BB80BA24AB24BA24C12C43
:105A8000D12C260132017E0185E0E80EF11C49147B
:105A900051046104710408F02CCF80EAA816B10407
:105AA000C104D10488F4C501899687D4F701819394
:105AB0007F018FEF481A580A680A780A8FEFA81AF0
:105AC000B80AC80AD80AE3CF80E0F0CF9C80892DBD
:105AD0008D3108F00ECF8A819B81982789279827DE
